:1000000000000120750300005D0300005F03000095
:1000100061030000630300006503000000000000AE
:100020000000000000000000000000006703000066
:1000300069030000000000006B0300006D03000076
:100040006F0300006F0300006F0300006F030000E8
:100050006F0300006F0300006F0300006F030000D8
:100060006F0300006F0300006F0300006F030000C8
:100070006F0300006F0300006F0300006F030000B8
:100080006F0300006F0300006F0300006F030000A8
:100090006F0300006F0300006F0300006F03000098
:1000A0006F0300006F0300006F0300006F03000088
:1000B0006F0300006F03000000000000000000005C
:1000C0006F0300006F0300006F0300006F03000068
:1000D0006F0300006F0300006F03000000000000CA
:1000E0000000000000000000000000000000000010
:1000F0000000000000000000000000000000000000
:1001000000000000000000000000000000000000EF
:1001100000000000000000000000000000000000DF
:1001200000000000000000000000000000000000CF
:1001300000000000000000000000000000000000BF
:1001400000000000000000000000000000000000AF
:10015000000000000000000000000000000000009F
:10016000000000000000000000000000000000008F
:10017000000000000000000000000000000000007F
:10018000000000000000000000000000000000006F
:10019000000000000000000000000000000000005F
:1001A000000000000000000000000000000000004F
:1001B000000000000000000000000000000000003F
:1001C000000000000000000000000000000000002F
:1001D000000000000000000000000000000000001F
:1001E000000000000000000000000000000000000F
:1001F00000000000000000000000000000000000FF
:10020000354936480A1A02D0072291438D463449AF
:1002100034480A1A06D00722914381F30988022242
:1002200082F3148830483149314A00F044F83148AB
:100230003149324A00F03FF831483249324A00F041
:100240003AF832483249334A00F035F832483349F7
:10025000334A00F030F833483349344A00F02BF881
:1002600033483449344A00F026F8344834490022EF
:1002700000F02CF833483449002200F027F83348C6
:100280003349091A082902DB002202604160314A21
:1002900090471F481F49884205D00268043003B4C4
:1002A000904703BCF7E700208646EC46002000217B
:1002B000294A9047FEE7884207D0521A05D00378B2
:1002C00001300B700131013AF9D17047884202D0F8
:1002D00002700130FAE770470000012000E00020C2
:1002E0000000012000000120940F00000000002009
:1002F00004000020D0030000D00300002C0F0000F9
:10030000940F000000000020000000202C0F0000CF
:100310002C0F00002C0F00002C0F00002C0F0000F1
:100320002C0F00002C0F00002C0F0000940F000079
:10033000980F0000040000200400002004000020AA
:1003400010000020100000201000002010000020ED
:10035000102000209D030000D5030000FEE7FEE70B
:10036000FEE7FEE7FEE7FEE7FEE7FEE7FEE7FEE765
:1003700000F002B8FFF7FCBF0F484FF007018843B9
:1003800085460E4880470E48016841F470010160BF
:10039000BFF34F8FBFF36F8FFFF732BF09480A4992
:1003A0000A4A884207D0521A05D0037801300B70F0
:1003B0000131013AF9D17047000001208D0400009D
:1003C00088ED00E02C0F000000000020000000205D
:1003D00000F086BD80B54FF0A0441548154D00F0E3
:1003E00017FA0323C4F834374FF40057C4F83C37E6
:1003F00045F00105C4F808754FF4FA764FF47A40D9
:10040000A847013EFAD1C4F80C754FF4FA764FF4C0
:100410007A40A847013EFAD1D4F80435DA4302F411
:10042000004203F40043C4F80825C4F80C35E1E7A2
:100430002C0F0000500F00004FF08053D3F8300114
:10044000421C04BF4FF0704393F8E00F831F5842E3
:10045000584170474FF0704393F8E02F062A09D1B6
:10046000D3F8E83FC3F30313033B042B02D8024A3B
:10047000D05C704700207047650F0000024AD2F838
:100480000034002BFBD0704700E0014010B5FFF7AF
:10049000D3FF40B14FF08053944AD3F82433C3F3D1
:1004A0000423C2F84035FFF7D5FF10B1904B914AB5
:1004B0005A67FFF7C1FF48B14FF080534FF08042B9
:1004C000D3F84432C3F34233C2F83C35FFF7C2FFDE
:1004D00030B1894AD2F8FC3023F08073C2F8FC3086
:1004E000FFF7AAFF40B14FF080430022C3F80C2170
:1004F000C3F81021C3F83825FFF7ACFF20B14FF047
:1005000080430322C3F8A025FFF7A4FF60B17B4B13
:100510000522C3F810260122C3F888260022C3F85A
:1005200018263F22C3F814264FF08053D3F8302109
:10053000511C09BF4FF07043D3F8343193F8E02FCA
:10054000D3F8E83F08BFC3F30313062A4DD1033B9A
:10055000042B03D86A4AD35C002B46D04FF080525C
:10056000684BD2F80414C3F82015D2F80814C3F865
:100570002415D2F80C14C3F82815D2F81014C3F8B7
:100580002C15D2F81414C3F83015D2F81814C3F887
:100590003415D2F81C14C3F84015D2F82014C3F84F
:1005A0004415D2F82414C3F84815D2F82814C3F817
:1005B0004C15D2F82C14C3F85015D2F83014C3F8E7
:1005C0005415D2F83414C3F86015D2F83814C3F8AF
:1005D0006415D2F83C14C3F86815D2F84014C3F877
:1005E0006C15D2F84424C3F87025FFF725FF48B1F5
:1005F0004FF080534FF08042D3F8583203F04F034E
:10060000C2F8E43EFFF718FF48B14FF08043D3F83B
:100610000024D20744BF6FF00102C3F800244FF05A
:100620008053D3F83021062A0ED1D3F83431033B5E
:10063000042B02D8344AD35C33B1344AD2F83C3765
:1006400043F48063C2F83C372B4AD2F8883043F435
:100650007003C2F88830BFF34F8FBFF36F8F4FF036
:100660008053D3F83021062A0FD1D3F83431033B1D
:10067000042B02D8264AD35C3BB14FF01023D3F8A9
:1006800008224FF08043C3F858254FF01023D3F8C9
:100690000022002A03DBD3F80432002B22DA1D49A2
:1006A00001234FF01020C1F804351524FFF7E6FEB2
:1006B000C0F80042FFF7E2FEC0F80442FFF7DEFE9A
:1006C0000023C1F80435FFF7D9FEBFF34F8F0A4965
:1006D000114BCA6802F4E0621343CB60BFF34F8F43
:1006E00000BFFDE70D4B0E4A1A6010BD00300140FF
:1006F00000C007400DF0ADBA00ED00E00050004032
:10070000560F000000C000405B0F000000100040CA
:10071000600F000000E001400400FA050000002026
:100720000090D00338B585680446084645B1226874
:100730006168531C8B4208BF00208A420AD2A85429
:10074000E26823682AB161688B4202D22146904751
:1007500023680133236038BD70B54D1E22D4136861
:100760001446C6B20EE0D0542368E2682AB161682C
:10077000994202D9214690472368013D01336A1C02
:1007800023600FD0A26872B1616803F1010C8C453F
:1007900014BF304600209942E5D8013D63466A1CEB
:1007A0002360EFD170BD3046DFE700BFC3062BD416
:1007B00010F4007F70B514BF302620264D1E22D4C1
:1007C00013681446F6B20EE0D0542368E2682AB1EA
:1007D0006168994202D9214690472368013D01335F
:1007E0006A1C23600FD0A2687AB1616803F1010C22
:1007F0008C4514BF304600209942E5D8013D634640
:100800006A1C2360EFD170BD70473046DEE700BF41
:100810000FB410B588B00AAB0D4A53F8041B03930C
:100820006FF000400024CDE905040191079200F02B
:1008300053FB039A019904A800F050F8019000F0CE
:100840004DFB019808B0BDE8104004B0704700BFF0
:10085000D1030000027862B169B100EB010C0346DC
:1008600001E0634503D013F8011F0029F9D1181ADC
:100870007047104670470846704700BF00F10101FD
:1008800010F0030F11D010F8012B002A23D010F024
:10089000030F0AD010F8012B002A1CD010F0030F10
:1008A00003D010F8012B002A15D02DE970004FF06D
:1008B00001324FF0803350F8044BA4EB020525EAD7
:1008C00004051D4000D1F6E7A0F1040070BC10F84B
:1008D000012B002AFBD1A0EB010070472DE9F04F5E
:1008E00000230C46036089B014F8011B03920746ED
:1008F000002900F0E582DFF8DC9507E03846FFF7D5
:1009000011FF14F8011B002900F058812529F5D1A9
:100910002246002612F8010B302800F29E801F2884
:100920000ED9A0F12003102B0AD8DFE803F0AC09A0
:1009300009A8090909A4090909A0099C09098D0048
:100940002A2840F0FC80039B10781D680433002D9A
:100950000393BCBF6D4246F01006A21C2E2800F087
:1009600004810021742800F092807A2800F08F80A2
:100970006C2800F032814C2800F03581682800F0A6
:10098000BE811446002800F08880A0F12503DAB269
:10099000532A00F22B81532B00F22881DFE813F059
:1009A000EB0126012601260126012601260126014A
:1009B00026012601260126012601260126012601FF
:1009C00026012601260126012601260126012601EF
:1009D00026012601260126012601260126012601DF
:1009E00026012601260126012601260126012601CF
:1009F00026012601260126012601260126012601BF
:100A00002601260126018200260126012601260153
:100A1000260126012601260126012601D601F6001F
:100A20002601260126012601F600260126012601BF
:100A3000260150024802130226012601ED0126017B
:100A4000CB0126012601840046F400761446224696
:100A500012F8010B30287FF662AF5E286FD146F4A2
:100A600080561446F3E746F010061446EFE746F0CA
:100A700020061446EBE746F400461446E7E746F046
:100A800080061446E3E746F040061446DFE71446C6
:100A900014F8010B00287FF478AF4FF0FF3009B055
:100AA000BDE8F08F46F4005616F0800A06D043F2F7
:100AB000780A43F25803782818BF9A4616F48073D0
:100AC00007BF06F48042B04626F4007806F4804260
:100AD000002A61D1039A18F0040F02F1040603966C
:100AE000126800F0A08092B2002B65D028F4007844
:100AF0005838202800F29D80DFE810F073019B0039
:100B00009B009B009B009B009B009B009B009B000D
:100B10009B009B00D4009B009B009B009B00D4008B
:100B20009B009B009B009B009B00090173019B00A5
:100B30009B009B009B00D4009B009B007301A0F1D5
:100B40003004E3B2092B4FF000053FF607AF12F86F
:100B5000010B05EB850504EB4505A0F13004E3B27C
:100B6000092BF4D92E287FF4FCAE10782A2840F007
:100B70007781039B50781968941C043300290393F0
:100B80002246FFF6EFAE46F48076EBE646F4804868
:100B900006F480734FF0000A039A18F0040F02F174
:100BA00004060396126830D012B2002A31DA52429B
:100BB0004FF02D0A002B99D1012199E73868BB68C5
:100BC000002B3FF46CAF7A6882427FF668AF002258
:100BD0001A54386809B0BDE8F08F144646F0010693
:100BE00014F8010BCEE646F001061446B54BD3F8D7
:100BF0000080B8F1000F3FF484AE009103A9019189
:100C00002B4632463946C0477BE618F0080FCCD059
:100C1000D2B218F0200F40F03E8118F0400F18BFFC
:100C20004FF0200A60E718F0080F3FF45DAFD2B232
:100C30005AE74FF0FF36002321EAE17BA5EB0B05D5
:100C4000BAF1FF0FA5EB030540F20481CAF30721B7
:100C50003846023DFFF766FD5FFA8AF13846FFF736
:100C600061FD40463A462946FFF7A0FD3A465946FF
:100C70003020FFF771FD731C0AD001360DF1140A04
:100C8000564416F8011D3846FFF74CFDB245F8D121
:100C900018F0100F3FF435AE29463A462020FFF7F2
:100CA0005BFD2EE61046002A00F0068108F4004C99
:100CB000624600238C464FF02C0E114603F00302CF
:100CC00009B1032A14D01E46A9FB0032D20802EB58
:100CD000820306F1200BA0EB4303EB4430330928D9
:100CE0000BF80C3C06F1010340F2D2801046E5E718
:100CF00003F120026A445E1C02F80CECE4E7107871
:100D0000682800F0D480541C46F004063AE61046E9
:100D1000002A00F0D1800DF1140C002302F007022C
:100D20003032C0080CF8012B1E4602460133002861
:100D3000F4D1C91A80E716F4807300F0AF8026F46E
:100D4000007806F480424FF0000AC1E6039B013DA3
:100D5000191D93F8008003913A4629463046FFF763
:100D600025FD41463846FFF7DDFCB3461BF0100F6A
:100D70003FF4C7AD90E72521C0E5039B524A181DFB
:100D80000390D3F800A0BAF1000F08BF9246F20515
:100D9000D04626F4007B504640F18580FFF75AFD8F
:100DA0000646AD1B3A4629465846FFF7FFFC002E83
:100DB000DCD018F8011B3846FFF7B4FCAAEB080397
:100DC000F342F6D1D2E7039B1A1D039216F0800F6F
:100DD0001A6846F480780CBF4FF0000A4FF0230ADF
:100DE00008211046002A67D008F4005C634605AA73
:100DF0008C460026A346194609E0344B000913F837
:100E00000E3002F8013B06F101030DD01E4600F042
:100E10000F0E0029F1D12E4C000914F80E3002F803
:100E2000013B06F10103F1D161465C46C91A03E7B3
:100E300016F0800F0CBF4FF0000A4FF0300A3DE66D
:100E4000039B3A68191D03911B6831074CBF1A7048
:100E50001A6056E5BAF1000F3FF403AF013DFBE61F
:100E6000A0F13004E3B2092B02F101024FF00001BE
:100E70003FF689AE12F8010B01EB810104EB410151
:100E8000A0F13004E3B2092BF4D946F4807669E589
:100E90006146C91AD0E64FF02B0A25E606F48042D7
:100EA000B0469A4614E6FFF7E9FC064679E7507823
:100EB00046F00806941C65E513464FF0FF36BBE686
:100EC00008467CE6040000208C0F00007C0F000028
:100ED0006C0F0000CDCCCCCC704700BF704700BF7A
:100EE00010B501460446172000F00AF800280CBF90
:100EF00020464FF0FF3010BD704700BF704700BF65
:100F000070B504460D46074EFFF7F6FF064A3560FA
:100F100044F0800414601368002BFCD1FFF7EEFF4F
:0C0F2000306870BD0C00002008000020AC
:100F2C005374617274696E6720626C696E6B7920A0
:100F3C006578616D706C6521210000000000000077
:100F4C00000000000338FDD87047000001010100CB
:100F5C000000010100000000010100000000000081
:100F6C003031323334353637383961626364656613
:100F7C0030313233343536373839414243444546C3
:080F8C00286E756C6C29000051
:040F94000090D003F6
:040000030000037581
:00000001FF
